{
  "_format": "hh-sol-artifact-1",
  "contractName": "Colors",
  "sourceName": "contracts/Colors.sol",
  "abi": [
    {
      "inputs": [],
      "stateMutability": "nonpayable",
      "type": "constructor"
    },
    {
      "anonymous": false,
      "inputs": [
        {
          "indexed": false,
          "internalType": "string",
          "name": "color",
          "type": "string"
        }
      ],
      "name": "setColorEvent",
      "type": "event"
    },
    {
      "inputs": [],
      "name": "colorCounter",
      "outputs": [
        {
          "internalType": "uint256",
          "name": "",
          "type": "uint256"
        }
      ],
      "stateMutability": "view",
      "type": "function"
    },
    {
      "inputs": [
        {
          "internalType": "uint256",
          "name": "",
          "type": "uint256"
        }
      ],
      "name": "colorsArray",
      "outputs": [
        {
          "internalType": "string",
          "name": "",
          "type": "string"
        }
      ],
      "stateMutability": "view",
      "type": "function"
    },
    {
      "inputs": [
        {
          "internalType": "string",
          "name": "color",
          "type": "string"
        }
      ],
      "name": "findColor",
      "outputs": [
        {
          "internalType": "string",
          "name": "colorFound",
          "type": "string"
        }
      ],
      "stateMutability": "view",
      "type": "function"
    },
    {
      "inputs": [],
      "name": "getColorsArrayLenght",
      "outputs": [
        {
          "internalType": "uint256",
          "name": "l",
          "type": "uint256"
        }
      ],
      "stateMutability": "view",
      "type": "function"
    },
    {
      "inputs": [
        {
          "internalType": "uint256",
          "name": "index",
          "type": "uint256"
        }
      ],
      "name": "getCurrentColors",
      "outputs": [
        {
          "internalType": "string",
          "name": "colorReturned",
          "type": "string"
        }
      ],
      "stateMutability": "view",
      "type": "function"
    },
    {
      "inputs": [
        {
          "internalType": "string",
          "name": "newColor",
          "type": "string"
        }
      ],
      "name": "insertColorToColorsArray",
      "outputs": [],
      "stateMutability": "nonpayable",
      "type": "function"
    },
    {
      "inputs": [],
      "name": "popColor",
      "outputs": [],
      "stateMutability": "nonpayable",
      "type": "function"
    },
    {
      "inputs": [
        {
          "internalType": "string",
          "name": "color",
          "type": "string"
        }
      ],
      "name": "setColor",
      "outputs": [],
      "stateMutability": "nonpayable",
      "type": "function"
    },
    {
      "inputs": [
        {
          "internalType": "string",
          "name": "color",
          "type": "string"
        }
      ],
      "name": "setColorOnDeploy",
      "outputs": [],
      "stateMutability": "nonpayable",
      "type": "function"
    }
  ],
  "bytecode": "0x6080604052600060015534801561001557600080fd5b50611030806100256000396000f3fe608060405234801561001057600080fd5b50600436106100935760003560e01c8063a3b13c7b11610066578063a3b13c7b1461010c578063b2ceceaa1461013c578063c77f544d14610158578063cbd0ab6b14610176578063fc36127f146101a657610093565b80632b888dd314610098578063657807a0146100b65780639646267f146100e65780639988fa69146100f0575b600080fd5b6100a06101c2565b6040516100ad9190610905565b60405180910390f35b6100d060048036038101906100cb9190610960565b6101ce565b6040516100dd9190610a1d565b60405180910390f35b6100ee61027a565b005b61010a60048036038101906101059190610b74565b6102ac565b005b61012660048036038101906101219190610960565b6103af565b6040516101339190610a1d565b60405180910390f35b61015660048036038101906101519190610b74565b61049d565b005b610160610513565b60405161016d9190610905565b60405180910390f35b610190600480360381019061018b9190610b74565b610519565b60405161019d9190610a1d565b60405180910390f35b6101c060048036038101906101bb9190610b74565b6106c2565b005b60008080549050905090565b600081815481106101de57600080fd5b9060005260206000200160009150905080546101f990610bec565b80601f016020809104026020016040519081016040528092919081815260200182805461022590610bec565b80156102725780601f1061024757610100808354040283529160200191610272565b820191906000526020600020905b81548152906001019060200180831161025557829003601f168201915b505050505081565b600080548061028c5761028b610c1d565b5b6001900381819060005260206000200160006102a8919061088f565b9055565b6102ea6040518060400160405280600e81526020017f73657474696e6720636f6c6f7273000000000000000000000000000000000000815250610731565b60008190806001815401808255809150506001900390600052602060002001600090919091909150908161031e9190610df8565b506001600081548092919061033290610ef9565b91905055507f1347b7eabe5787da49f24de323dbf3c6a771f493a70b4f36cf7dcad7b8cf2e42816040516103669190610a1d565b60405180910390a16103ac6040518060400160405280601581526020017f656e64206f662073657474696e6720636f6c6f72730000000000000000000000815250610731565b50565b60606103ef6040518060400160405280600f81526020017f67657474696e6720636f6c6f7273210000000000000000000000000000000000815250610731565b6000828154811061040357610402610f41565b5b90600052602060002001805461041890610bec565b80601f016020809104026020016040519081016040528092919081815260200182805461044490610bec565b80156104915780601f1061046657610100808354040283529160200191610491565b820191906000526020600020905b81548152906001019060200180831161047457829003601f168201915b50505050509050919050565b6104db6040518060400160405280601881526020017f73657474696e6720636f6c6f7273206f6e206465706c6f790000000000000000815250610731565b60008190806001815401808255809150506001900390600052602060002001600090919091909150908161050f9190610df8565b5050565b60015481565b60606040518060400160405280600e81526020017f4e6f20636f6c6f7220666f756e64000000000000000000000000000000000000815250905060005b6000805490508110156106bc57600080828154811061057857610577610f41565b5b90600052602060002001805461058d90610bec565b80601f01602080910402602001604051908101604052809291908181526020018280546105b990610bec565b80156106065780601f106105db57610100808354040283529160200191610606565b820191906000526020600020905b8154815290600101906020018083116105e957829003601f168201915b5050505050905061064c6040518060400160405280600d81526020017f63757272656e7420636f6c6f7200000000000000000000000000000000000000815250826107ca565b8060405160200161065d9190610fac565b60405160208183030381529060405280519060200120846040516020016106849190610fac565b60405160208183030381529060405280519060200120036106a857809250506106bc565b5080806106b490610ef9565b915050610556565b50919050565b6000819080600181540180825580915050600190039060005260206000200160009091909190915090816106f69190610df8565b507f1347b7eabe5787da49f24de323dbf3c6a771f493a70b4f36cf7dcad7b8cf2e42816040516107269190610a1d565b60405180910390a150565b6107c7816040516024016107459190610a1d565b6040516020818303038152906040527f41304fac000000000000000000000000000000000000000000000000000000007bffffffffffffffffffffffffffffffffffffffffffffffffffffffff19166020820180517bffffffffffffffffffffffffffffffffffffffffffffffffffffffff8381831617835250505050610866565b50565b61086282826040516024016107e0929190610fc3565b6040516020818303038152906040527f4b5c4277000000000000000000000000000000000000000000000000000000007bffffffffffffffffffffffffffffffffffffffffffffffffffffffff19166020820180517bffffffffffffffffffffffffffffffffffffffffffffffffffffffff8381831617835250505050610866565b5050565b60008151905060006a636f6e736f6c652e6c6f679050602083016000808483855afa5050505050565b50805461089b90610bec565b6000825580601f106108ad57506108cc565b601f0160209004906000526020600020908101906108cb91906108cf565b5b50565b5b808211156108e85760008160009055506001016108d0565b5090565b6000819050919050565b6108ff816108ec565b82525050565b600060208201905061091a60008301846108f6565b92915050565b6000604051905090565b600080fd5b600080fd5b61093d816108ec565b811461094857600080fd5b50565b60008135905061095a81610934565b92915050565b6000602082840312156109765761097561092a565b5b60006109848482850161094b565b91505092915050565b600081519050919050565b600082825260208201905092915050565b60005b838110156109c75780820151818401526020810190506109ac565b60008484015250505050565b6000601f19601f8301169050919050565b60006109ef8261098d565b6109f98185610998565b9350610a098185602086016109a9565b610a12816109d3565b840191505092915050565b60006020820190508181036000830152610a3781846109e4565b905092915050565b600080fd5b600080fd5b7f4e487b7100000000000000000000000000000000000000000000000000000000600052604160045260246000fd5b610a81826109d3565b810181811067ffffffffffffffff82111715610aa057610a9f610a49565b5b80604052505050565b6000610ab3610920565b9050610abf8282610a78565b919050565b600067ffffffffffffffff821115610adf57610ade610a49565b5b610ae8826109d3565b9050602081019050919050565b82818337600083830152505050565b6000610b17610b1284610ac4565b610aa9565b905082815260208101848484011115610b3357610b32610a44565b5b610b3e848285610af5565b509392505050565b600082601f830112610b5b57610b5a610a3f565b5b8135610b6b848260208601610b04565b91505092915050565b600060208284031215610b8a57610b8961092a565b5b600082013567ffffffffffffffff811115610ba857610ba761092f565b5b610bb484828501610b46565b91505092915050565b7f4e487b7100000000000000000000000000000000000000000000000000000000600052602260045260246000fd5b60006002820490506001821680610c0457607f821691505b602082108103610c1757610c16610bbd565b5b50919050565b7f4e487b7100000000000000000000000000000000000000000000000000000000600052603160045260246000fd5b60008190508160005260206000209050919050565b60006020601f8301049050919050565b600082821b905092915050565b600060088302610cae7fffffffffffffffffffffffffffffffffffffffffffffffffffffffffffffffff82610c71565b610cb88683610c71565b95508019841693508086168417925050509392505050565b6000819050919050565b6000610cf5610cf0610ceb846108ec565b610cd0565b6108ec565b9050919050565b6000819050919050565b610d0f83610cda565b610d23610d1b82610cfc565b848454610c7e565b825550505050565b600090565b610d38610d2b565b610d43818484610d06565b505050565b5b81811015610d6757610d5c600082610d30565b600181019050610d49565b5050565b601f821115610dac57610d7d81610c4c565b610d8684610c61565b81016020851015610d95578190505b610da9610da185610c61565b830182610d48565b50505b505050565b600082821c905092915050565b6000610dcf60001984600802610db1565b1980831691505092915050565b6000610de88383610dbe565b9150826002028217905092915050565b610e018261098d565b67ffffffffffffffff811115610e1a57610e19610a49565b5b610e248254610bec565b610e2f828285610d6b565b600060209050601f831160018114610e625760008415610e50578287015190505b610e5a8582610ddc565b865550610ec2565b601f198416610e7086610c4c565b60005b82811015610e9857848901518255600182019150602085019450602081019050610e73565b86831015610eb55784890151610eb1601f891682610dbe565b8355505b6001600288020188555050505b505050505050565b7f4e487b7100000000000000000000000000000000000000000000000000000000600052601160045260246000fd5b6000610f04826108ec565b91507fffffffffffffffffffffffffffffffffffffffffffffffffffffffffffffffff8203610f3657610f35610eca565b5b600182019050919050565b7f4e487b7100000000000000000000000000000000000000000000000000000000600052603260045260246000fd5b600081905092915050565b6000610f868261098d565b610f908185610f70565b9350610fa08185602086016109a9565b80840191505092915050565b6000610fb88284610f7b565b915081905092915050565b60006040820190508181036000830152610fdd81856109e4565b90508181036020830152610ff181846109e4565b9050939250505056fea2646970667358221220d5991c52e0943eede263048dd375700099de0fdc48ee5d0adaaec74f3947557164736f6c63430008110033",
  "linkReferences": {},
  "deployedLinkReferences": {}
}