{
  "_format": "hh-sol-artifact-1",
  "contractName": "Colors",
  "sourceName": "contracts/Colors.sol",
  "abi": [
    {
      "inputs": [],
      "stateMutability": "nonpayable",
      "type": "constructor"
    },
    {
      "anonymous": false,
      "inputs": [
        {
          "indexed": false,
          "internalType": "string",
          "name": "color",
          "type": "string"
        }
      ],
      "name": "setColorEvent",
      "type": "event"
    },
    {
      "inputs": [],
      "name": "colorCounter",
      "outputs": [
        {
          "internalType": "uint256",
          "name": "",
          "type": "uint256"
        }
      ],
      "stateMutability": "view",
      "type": "function"
    },
    {
      "inputs": [
        {
          "internalType": "uint256",
          "name": "",
          "type": "uint256"
        }
      ],
      "name": "colorsArray",
      "outputs": [
        {
          "internalType": "string",
          "name": "",
          "type": "string"
        }
      ],
      "stateMutability": "view",
      "type": "function"
    },
    {
      "inputs": [
        {
          "internalType": "uint256",
          "name": "",
          "type": "uint256"
        }
      ],
      "name": "colorsReceived",
      "outputs": [
        {
          "internalType": "string",
          "name": "",
          "type": "string"
        }
      ],
      "stateMutability": "view",
      "type": "function"
    },
    {
      "inputs": [
        {
          "internalType": "string",
          "name": "color",
          "type": "string"
        }
      ],
      "name": "findColor",
      "outputs": [
        {
          "internalType": "string",
          "name": "colorFound",
          "type": "string"
        }
      ],
      "stateMutability": "view",
      "type": "function"
    },
    {
      "inputs": [
        {
          "internalType": "string",
          "name": "color",
          "type": "string"
        }
      ],
      "name": "findColor2",
      "outputs": [
        {
          "internalType": "string",
          "name": "colorFound",
          "type": "string"
        }
      ],
      "stateMutability": "view",
      "type": "function"
    },
    {
      "inputs": [],
      "name": "getColorsArrayLenght",
      "outputs": [
        {
          "internalType": "uint256",
          "name": "l",
          "type": "uint256"
        }
      ],
      "stateMutability": "view",
      "type": "function"
    },
    {
      "inputs": [
        {
          "internalType": "uint256",
          "name": "index",
          "type": "uint256"
        }
      ],
      "name": "getCurrentColors",
      "outputs": [
        {
          "internalType": "string",
          "name": "colorReturned",
          "type": "string"
        }
      ],
      "stateMutability": "view",
      "type": "function"
    },
    {
      "inputs": [
        {
          "internalType": "string",
          "name": "newColor",
          "type": "string"
        }
      ],
      "name": "insertColorToColorsArray",
      "outputs": [],
      "stateMutability": "nonpayable",
      "type": "function"
    },
    {
      "inputs": [
        {
          "internalType": "string",
          "name": "color",
          "type": "string"
        }
      ],
      "name": "setColor",
      "outputs": [],
      "stateMutability": "nonpayable",
      "type": "function"
    }
  ],
  "bytecode": "0x608060405260405180606001604052806040518060400160405280600381526020017f726564000000000000000000000000000000000000000000000000000000000081525081526020016040518060400160405280600481526020017f626c75650000000000000000000000000000000000000000000000000000000081525081526020016040518060400160405280600581526020017f677265656e0000000000000000000000000000000000000000000000000000008152508152506000906003620000d0929190620000ea565b506000600255348015620000e357600080fd5b5062000538565b82805482825590600052602060002090810192821562000137579160200282015b828111156200013657825182908162000125919062000451565b50916020019190600101906200010b565b5b5090506200014691906200014a565b5090565b5b808211156200016e576000818162000164919062000172565b506001016200014b565b5090565b508054620001809062000240565b6000825580601f10620001945750620001b5565b601f016020900490600052602060002090810190620001b49190620001b8565b5b50565b5b80821115620001d3576000816000905550600101620001b9565b5090565b600081519050919050565b7f4e487b7100000000000000000000000000000000000000000000000000000000600052604160045260246000fd5b7f4e487b7100000000000000000000000000000000000000000000000000000000600052602260045260246000fd5b600060028204905060018216806200025957607f821691505b6020821081036200026f576200026e62000211565b5b50919050565b60008190508160005260206000209050919050565b60006020601f8301049050919050565b600082821b905092915050565b600060088302620002d97fffffffffffffffffffffffffffffffffffffffffffffffffffffffffffffffff826200029a565b620002e586836200029a565b95508019841693508086168417925050509392505050565b6000819050919050565b6000819050919050565b6000620003326200032c6200032684620002fd565b62000307565b620002fd565b9050919050565b6000819050919050565b6200034e8362000311565b620003666200035d8262000339565b848454620002a7565b825550505050565b600090565b6200037d6200036e565b6200038a81848462000343565b505050565b5b81811015620003b257620003a660008262000373565b60018101905062000390565b5050565b601f8211156200040157620003cb8162000275565b620003d6846200028a565b81016020851015620003e6578190505b620003fe620003f5856200028a565b8301826200038f565b50505b505050565b600082821c905092915050565b6000620004266000198460080262000406565b1980831691505092915050565b600062000441838362000413565b9150826002028217905092915050565b6200045c82620001d7565b67ffffffffffffffff811115620004785762000477620001e2565b5b62000484825462000240565b62000491828285620003b6565b600060209050601f831160018114620004c95760008415620004b4578287015190505b620004c0858262000433565b86555062000530565b601f198416620004d98662000275565b60005b828110156200050357848901518255600182019150602085019450602081019050620004dc565b868310156200052357848901516200051f601f89168262000413565b8355505b6001600288020188555050505b505050505050565b61118d80620005486000396000f3fe608060405234801561001057600080fd5b50600436106100935760003560e01c80639988fa69116100665780639988fa6914610146578063a3b13c7b14610162578063c77f544d14610192578063cbd0ab6b146101b0578063fc36127f146101e057610093565b80632b888dd31461009857806356d7d674146100b6578063657807a0146100e657806379d091bc14610116575b600080fd5b6100a06101fc565b6040516100ad9190610a91565b60405180910390f35b6100d060048036038101906100cb9190610c06565b610209565b6040516100dd9190610cce565b60405180910390f35b61010060048036038101906100fb9190610d1c565b6103b3565b60405161010d9190610cce565b60405180910390f35b610130600480360381019061012b9190610d1c565b61045f565b60405161013d9190610cce565b60405180910390f35b610160600480360381019061015b9190610c06565b61050b565b005b61017c60048036038101906101779190610d1c565b61060e565b6040516101899190610cce565b60405180910390f35b61019a6106fc565b6040516101a79190610a91565b60405180910390f35b6101ca60048036038101906101c59190610c06565b610702565b6040516101d79190610cce565b60405180910390f35b6101fa60048036038101906101f59190610c06565b6108ab565b005b6000600180549050905090565b60606040518060400160405280600e81526020017f4e6f20636f6c6f7220666f756e64000000000000000000000000000000000000815250905060005b6001805490508110156103ad5760006001828154811061026957610268610d49565b5b90600052602060002001805461027e90610da7565b80601f01602080910402602001604051908101604052809291908181526020018280546102aa90610da7565b80156102f75780601f106102cc576101008083540402835291602001916102f7565b820191906000526020600020905b8154815290600101906020018083116102da57829003601f168201915b5050505050905061033d6040518060400160405280600d81526020017f63757272656e7420636f6c6f72000000000000000000000000000000000000008152508261091a565b8060405160200161034e9190610e14565b60405160208183030381529060405280519060200120846040516020016103759190610e14565b604051602081830303815290604052805190602001200361039957809250506103ad565b5080806103a590610e5a565b915050610246565b50919050565b600081815481106103c357600080fd5b9060005260206000200160009150905080546103de90610da7565b80601f016020809104026020016040519081016040528092919081815260200182805461040a90610da7565b80156104575780601f1061042c57610100808354040283529160200191610457565b820191906000526020600020905b81548152906001019060200180831161043a57829003601f168201915b505050505081565b6001818154811061046f57600080fd5b90600052602060002001600091509050805461048a90610da7565b80601f01602080910402602001604051908101604052809291908181526020018280546104b690610da7565b80156105035780601f106104d857610100808354040283529160200191610503565b820191906000526020600020905b8154815290600101906020018083116104e657829003601f168201915b505050505081565b6105496040518060400160405280600e81526020017f73657474696e6720636f6c6f72730000000000000000000000000000000000008152506109b6565b60018190806001815401808255809150506001900390600052602060002001600090919091909150908161057d919061104e565b506002600081548092919061059190610e5a565b91905055507f1347b7eabe5787da49f24de323dbf3c6a771f493a70b4f36cf7dcad7b8cf2e42816040516105c59190610cce565b60405180910390a161060b6040518060400160405280601581526020017f656e64206f662073657474696e6720636f6c6f727300000000000000000000008152506109b6565b50565b606061064e6040518060400160405280600f81526020017f67657474696e6720636f6c6f72732100000000000000000000000000000000008152506109b6565b6000828154811061066257610661610d49565b5b90600052602060002001805461067790610da7565b80601f01602080910402602001604051908101604052809291908181526020018280546106a390610da7565b80156106f05780601f106106c5576101008083540402835291602001916106f0565b820191906000526020600020905b8154815290600101906020018083116106d357829003601f168201915b50505050509050919050565b60025481565b60606040518060400160405280600e81526020017f4e6f20636f6c6f7220666f756e64000000000000000000000000000000000000815250905060005b6000805490508110156108a557600080828154811061076157610760610d49565b5b90600052602060002001805461077690610da7565b80601f01602080910402602001604051908101604052809291908181526020018280546107a290610da7565b80156107ef5780601f106107c4576101008083540402835291602001916107ef565b820191906000526020600020905b8154815290600101906020018083116107d257829003601f168201915b505050505090506108356040518060400160405280600d81526020017f63757272656e7420636f6c6f72000000000000000000000000000000000000008152508261091a565b806040516020016108469190610e14565b604051602081830303815290604052805190602001208460405160200161086d9190610e14565b604051602081830303815290604052805190602001200361089157809250506108a5565b50808061089d90610e5a565b91505061073f565b50919050565b6000819080600181540180825580915050600190039060005260206000200160009091909190915090816108df919061104e565b507f1347b7eabe5787da49f24de323dbf3c6a771f493a70b4f36cf7dcad7b8cf2e428160405161090f9190610cce565b60405180910390a150565b6109b28282604051602401610930929190611120565b6040516020818303038152906040527f4b5c4277000000000000000000000000000000000000000000000000000000007bffffffffffffffffffffffffffffffffffffffffffffffffffffffff19166020820180517bffffffffffffffffffffffffffffffffffffffffffffffffffffffff8381831617835250505050610a4f565b5050565b610a4c816040516024016109ca9190610cce565b6040516020818303038152906040527f41304fac000000000000000000000000000000000000000000000000000000007bffffffffffffffffffffffffffffffffffffffffffffffffffffffff19166020820180517bffffffffffffffffffffffffffffffffffffffffffffffffffffffff8381831617835250505050610a4f565b50565b60008151905060006a636f6e736f6c652e6c6f679050602083016000808483855afa5050505050565b6000819050919050565b610a8b81610a78565b82525050565b6000602082019050610aa66000830184610a82565b92915050565b6000604051905090565b600080fd5b600080fd5b600080fd5b600080fd5b6000601f19601f8301169050919050565b7f4e487b7100000000000000000000000000000000000000000000000000000000600052604160045260246000fd5b610b1382610aca565b810181811067ffffffffffffffff82111715610b3257610b31610adb565b5b80604052505050565b6000610b45610aac565b9050610b518282610b0a565b919050565b600067ffffffffffffffff821115610b7157610b70610adb565b5b610b7a82610aca565b9050602081019050919050565b82818337600083830152505050565b6000610ba9610ba484610b56565b610b3b565b905082815260208101848484011115610bc557610bc4610ac5565b5b610bd0848285610b87565b509392505050565b600082601f830112610bed57610bec610ac0565b5b8135610bfd848260208601610b96565b91505092915050565b600060208284031215610c1c57610c1b610ab6565b5b600082013567ffffffffffffffff811115610c3a57610c39610abb565b5b610c4684828501610bd8565b91505092915050565b600081519050919050565b600082825260208201905092915050565b60005b83811015610c89578082015181840152602081019050610c6e565b60008484015250505050565b6000610ca082610c4f565b610caa8185610c5a565b9350610cba818560208601610c6b565b610cc381610aca565b840191505092915050565b60006020820190508181036000830152610ce88184610c95565b905092915050565b610cf981610a78565b8114610d0457600080fd5b50565b600081359050610d1681610cf0565b92915050565b600060208284031215610d3257610d31610ab6565b5b6000610d4084828501610d07565b91505092915050565b7f4e487b7100000000000000000000000000000000000000000000000000000000600052603260045260246000fd5b7f4e487b7100000000000000000000000000000000000000000000000000000000600052602260045260246000fd5b60006002820490506001821680610dbf57607f821691505b602082108103610dd257610dd1610d78565b5b50919050565b600081905092915050565b6000610dee82610c4f565b610df88185610dd8565b9350610e08818560208601610c6b565b80840191505092915050565b6000610e208284610de3565b915081905092915050565b7f4e487b7100000000000000000000000000000000000000000000000000000000600052601160045260246000fd5b6000610e6582610a78565b91507fffffffffffffffffffffffffffffffffffffffffffffffffffffffffffffffff8203610e9757610e96610e2b565b5b600182019050919050565b60008190508160005260206000209050919050565b60006020601f8301049050919050565b600082821b905092915050565b600060088302610f047fffffffffffffffffffffffffffffffffffffffffffffffffffffffffffffffff82610ec7565b610f0e8683610ec7565b95508019841693508086168417925050509392505050565b6000819050919050565b6000610f4b610f46610f4184610a78565b610f26565b610a78565b9050919050565b6000819050919050565b610f6583610f30565b610f79610f7182610f52565b848454610ed4565b825550505050565b600090565b610f8e610f81565b610f99818484610f5c565b505050565b5b81811015610fbd57610fb2600082610f86565b600181019050610f9f565b5050565b601f82111561100257610fd381610ea2565b610fdc84610eb7565b81016020851015610feb578190505b610fff610ff785610eb7565b830182610f9e565b50505b505050565b600082821c905092915050565b600061102560001984600802611007565b1980831691505092915050565b600061103e8383611014565b9150826002028217905092915050565b61105782610c4f565b67ffffffffffffffff8111156110705761106f610adb565b5b61107a8254610da7565b611085828285610fc1565b600060209050601f8311600181146110b857600084156110a6578287015190505b6110b08582611032565b865550611118565b601f1984166110c686610ea2565b60005b828110156110ee578489015182556001820191506020850194506020810190506110c9565b8683101561110b5784890151611107601f891682611014565b8355505b6001600288020188555050505b505050505050565b6000604082019050818103600083015261113a8185610c95565b9050818103602083015261114e8184610c95565b9050939250505056fea26469706673582212207b2f96187d39f3a05446eaad91b56c52b4661a7ff009be3238c2202b66f6761b64736f6c63430008110033",
  "linkReferences": {},
  "deployedLinkReferences": {}
}